:020000040000FA
:100000000A128A11FC2F00308A000408840A820731
:1000100000344D3465346434693475346D342034BF
:1000200057346134733468340034533465346C3479
:10003000653463347434203479346F3475347234F5
:10004000003451347534693463346B34203457349C
:100050006134733468340034463461347334743436
:1000600020345734613473346834003453346C347E
:100070006F34773420345734613473346834003447
:100080006F347034743469346F346E343A340034FD
:080090004F344B343F340034BF
:100B260000300A128A11CF250A128A1101300A12E0
:100B36008A11CF2508008316031388010730890020
:100B4600F7309F000A128A11E6260A128A110A1243
:100B56008A11E9250A128A110A128A115A270A12DB
:100B66008A11B42DF000701CBC2D831203130816D5
:100B7600BF2D831203130812F01CC32D8816C42D33
:100B86008812701DC82D0817C92D0813F01DCD2D0C
:100B96008817080088130800F3008312031308114E
:100BA60073080A128A11B5250A128A1183120313D1
:100BB60088151A30F200F830F100F10BE02DF20B37
:100BC600E02D000083120313881108000A128A110F
:100BD60093250A128A11F401F40A01300A128A11C5
:100BE6002B260A128A110D300A128A1109260A12B8
:100BF6008A11F401F40A02300A128A112B260A120B
:100C06008A1138300A128A1109260800FB00F901F8
:100C1600FA0179087B0784000A128A1103200A1256
:100C26008A11003A0319080079087B0784000A1222
:100C36008A1103200A128A110A128A1175260A12CB
:100C46008A110130F9070318FA0A0030FA070C2E48
:100C5600F7007703031D502E74087F3EF5007508D4
:100C6600FA007A08F50004300310F50CFF3E031D68
:100C7600372E7508F6007608F8007A080F39F50061
:100C86007508F90078080A128A11CF250A128A1106
:100C960079080A128A11CF25080002307706031D4B
:100CA60008007408BF3EF5007508FA007A08F500DA
:100CB60004300310F50CFF3E031D5C2E7508F6008C
:100CC6007608F8007A080F39F5007508F9007808F3
:100CD6000A128A11CF250A128A1179080A128A1174
:100CE600CF250800F40074080F39F1007108F200EE
:100CF6007408F039F1007108F30083120313081524
:100D06007308F10004300310F10CFF3E031D862E1C
:100D160071080A128A11B5250A128A118312031361
:100D260088153330F5008230F6007608803AFF00E9
:100D360080307F02031DA12E013075020318B52EE7
:100D46000000FF30F5070318F60AFF30F6077608AD
:100D5600803AFF0080307F02031DB32E01307502FA
:100D6600031CA32E83120313881172080A128A1118
:100D7600B5250A128A118312031388153330F7003A
:100D86008230F8007808803AFF0080307F02031D29
:100D9600CE2E013077020318E22E0000FF30F7074F
:100DA6000318F80AFF30F8077808803AFF00803009
:100DB6007F02031DE02E01307702031CD02E831222
:100DC60003138811080000300A128A11B5250A1289
:100DD6008A111C30F6004130F7007708803AFF0090
:100DE60080307F02031DF92E0130760203180D2F85
:100DF6000000FF30F6070318F70AFF30F7077708F9
:100E0600803AFF0080307F02031D0B2F01307602EF
:100E1600031CFB2E03300A128A11CF250A128A11EF
:100E26002130F5007630F400F40B172FF50B172F51
:100E3600000003300A128A11CF250A128A1148309F
:100E4600F5006C30F400F40B262FF50B262F00006E
:100E560003300A128A11CF250A128A1102300A12A9
:100E66008A11CF250A128A1102300A128A11CF2559
:100E76000A128A1108300A128A11CF250A128A111B
:100E860000300A128A11CF250A128A110C300A1272
:100E96008A11CF250A128A1100300A128A11CF252B
:100EA6000A128A1106300A128A11CF250800831207
:100EB60003130919E32F0130FC007C08A007E32F78
:100EC6000A128A1193250A128A11F401F40A0130D2
:100ED6000A128A112B260A128A1119300A128A114D
:100EE60009260A128A11F401F40A02300A128A113A
:100EF6002B260A128A1140300A128A110926080086
:100F06000A128A1193250A128A11F401F40A013091
:100F16000A128A112B260A128A1124300A128A1101
:100F260009260A128A11F401F40A02300A128A11F9
:100F36002B260A128A1140300A128A110926080045
:100F46000A128A1193250A128A11F401F40A013051
:100F56000A128A112B260A128A1101300A128A11E4
:100F660009260A128A11F401F40A02300A128A11B9
:100F76002B260A128A1140300A128A110926080005
:100F86000A128A1193250A128A11F401F40A013011
:100F96000A128A112B260A128A112E300A128A1177
:100FA60009260A128A11F401F40A02300A128A1179
:100FB6002B260A128A1140300A128A1109260800C5
:100FC600831203132008FC00FD017D08003A031973
:100FD600ED2FFB2F7C08003A0319632F013A031902
:100FE600832F033A0319A32F013A0319C32FFB2FAB
:0A0FF600080083010A128A119E2DE3
:02400E00723FFF
:00000001FF
